:020000040000FA
:100000000C9458000C9480000C9480000C94800098
:100010000C9480000C9480000C9480000C94800060
:100020000C9480000C9480000C9480000C94800050
:100030000C9480000C9480000C9480000C94800040
:100040000C9464040C9480000C9432040C940C0402
:100050000C9480000C9480000C9480000C94800020
:100060000C94AE040C9480000000000025002800D1
:100070002B00040404040404040402020202020229
:10008000030303030303010204081020408001025C
:1000900004081020010204081020000000080002DB
:1000A0000100000304070000000000000000CD056F
:1000B00011241FBECFEFD8E0DEBFCDBF11E0A0E01E
:1000C000B1E0E6EAFEE002C005900D92A233B1076E
:1000D000D9F722E0A2E3B1E001C01D92A238B20735
:1000E000E1F710E0C8E5D0E004C02197FE010E94CE
:1000F0004B07C735D107C9F70E9406060C94510774
:100100000C9400008091B3019091B401891B990B6C
:10011000089508950895AF92BF92CF92DF92EF9223
:10012000FF920F931F93CF93DF936C017B018B01A1
:10013000040F151FEB015E01AE18BF08C017D107F1
:1001400059F06991D601ED91FC910190F081E02D7B
:10015000C6010995892B79F7C501DF91CF911F91D0
:100160000F91FF90EF90DF90CF90BF90AF900895E8
:10017000FC01538D448D252F30E0842F90E0821BAD
:10018000930B541710F0CF96089501970895FC0132
:10019000918D828D981761F0A28DAE0FBF2FB11D8A
:1001A0005D968C91928D9F5F9F73928F90E00895E2
:1001B0008FEF9FEF0895FC01918D828D981731F09C
:1001C000828DE80FF11D858D90E008958FEF9FEFF0
:1001D0000895FC01918D228D892F90E0805C9F4FC6
:1001E000821B91098F739927089589ED91E00E94F0
:1001F000E90021E0892B09F420E0822F089580E0B6
:1002000090E0892B29F00E94F50081110C940000E8
:100210000895FC01A48DA80FB92FB11DA35ABF4F9B
:100220002C91848D90E001968F739927848FA689F5
:10023000B7892C93A089B1898C91837080648C9349
:10024000938D848D981306C00288F389E02D8081F8
:100250008F7D80830895EF92FF920F931F93CF932A
:10026000DF93EC0181E0888F9B8D8C8D98131AC0F1
:10027000E889F989808185FF15C09FB7F894EE89D8
:10028000FF896083E889F989808183708064808335
:100290009FBF81E090E0DF91CF911F910F91FF9080
:1002A000EF900895F62E0B8D10E00F5F1F4F0F7328
:1002B0001127E02E8C8D8E110CC00FB607FCFACFE3
:1002C000E889F989808185FFF5CFCE010E94090177
:1002D000F1CFEB8DEC0FFD2FF11DE35AFF4FF082B4
:1002E0009FB7F8940B8FEA89FB8980818062CFCF1A
:1002F000CF93DF93EC01888D8823B9F0AA89BB895D
:10030000E889F9898C9185FD03C0808186FD0DC047
:100310000FB607FCF7CF8C9185FFF2CF808185FF68
:10032000EDCFCE010E940901E9CFDF91CF91089571
:1003300090E0FC01E656FF4F2491FC01EA57FF4F85
:100340003491FC01EE58FF4FE491EE23C9F02223D3
:1003500039F0233001F1A8F4213019F1223029F1CC
:10036000F0E0EE0FFF1FE859FF4FA591B4918FB752
:10037000F894EC91611126C030953E233C938FBFD9
:1003800008952730A9F02830C9F0243049F780912A
:1003900080008F7D03C0809180008F7780938000E4
:1003A000DFCF84B58F7784BDDBCF84B58F7DFBCF66
:1003B0008091B0008F778093B000D2CF8091B00051
:1003C0008F7DF9CF3E2BDACF3FB7F894809177013C
:1003D00090917801A0917901B0917A0126B5A89BFE
:1003E00005C02F3F19F00196A11DB11D3FBFBA2FC7
:1003F000A92F982F8827BC01CD01620F711D811D87
:10040000911D42E0660F771F881F991F4A95D1F70B
:10041000089520915301260F3327331F21323105D0
:10042000ECF42091AD01FC0190E080E0243069F013
:1004300082E00895A09153012191AC014D5C5E4F83
:10044000A40FB52FB11D2C930196861798F38091B8
:100450005301680F6093530180E0089581E008958F
:100460001092AD0181E08093AC011092A70161E090
:1004700082E10E94980161E083E10E949801E9EB2A
:10048000F0E080818E7F808380818D7F808388E40F
:100490008093B80085E48093BC000895CF93DF93E8
:1004A00091E0909332018823B9F0C091B800D091C7
:1004B000BA008091BC008A7B8093BC0060E082E13E
:1004C0000E94980160E083E10E9498010E9430023E
:1004D000D093BA00C093B800DF91CF9108950895EA
:1004E000E091B4018091B301E81730F4F0E0EB54EF
:1004F000FE4F808190E008958FEF9FEF08959091D7
:10050000B4018091B3012FEF3FEF981748F4E92F22
:10051000F0E0EB54FE4F208130E09F5F9093B401F8
:10052000C9010895CF93DF93CB01EA01642F0E94A4
:100530000902CE01DF91CF910895CF93DF931F92EF
:10054000CDB7DEB7698361E0CE0101960E94090252
:1005500081E090E00F90DF91CF91089590E080E0EE
:100560000895FC0101900020E9F73197AF01481B85
:10057000590BBC0189ED91E00C948B008F929F92F6
:10058000AF92BF92CF92DF92EF92FF920F931F93A1
:10059000CF938FB7F894C090D501D090D601E0905A
:1005A000D701F090D8018FBF0E94E4014B015C019C
:1005B0008091AD01811163C081E08093AD01809392
:1005C000AC019FEF9093AB011092AA011092A90188
:1005D0008093A8018091A80182618093A8018091F5
:1005E000A701813009F094C01092A7010E94E40194
:1005F0004B015C018091A8018093BB008091AF0109
:100600009091B001A091B101B091B201892B8A2BD8
:100610008B2BA1F00E94E4010091AF011091B00179
:100620002091B1013091B201681979098A099B09B9
:10063000061717072807390708F442C08091BC0045
:1006400083FDD8CF85EC8093BC000E94E4014B0170
:100650005C018091AD01813009F45CC08091AA01F8
:1006600081117AC08091AA01E7E8F1E0A5EBB1E041
:1006700090E0981751F121912D939F5FFACF8091CF
:10068000AF019091B001A091B101B091B201892B5D
:100690008A2B8B2B09F48CCF0E94E4010091AF01CF
:1006A0001091B0012091B1013091B201681979091E
:1006B0008A099B09061717072807390708F078CF1A
:1006C0008091AE010E944E0280E01092B4018093AE
:1006D000B3019091B3018091B40198133FC02FB73B
:1006E000F8948091D5019091D601A091D701B09155
:1006F000D8012FBF8C199D09AE09BF098436910519
:10070000A105B10558F584E291E00E94B102E1CF64
:1007100085EE99CF8091AF019091B001A091B10188
:10072000B091B201892B8A2B8B2B09F492CF0E94B6
:10073000E4010091AF011091B0012091B10130911D
:10074000B201681979098A099B0906171707280752
:10075000390708F07ECFB4CF81E086CF2FB7F89469
:100760008091D5019091D601A091D701B091D80187
:100770002FBF8C199D09AE09BF0984369105A105CB
:10078000B10528F486E792E00E947F02C82F8C2FE3
:10079000CF911F910F91FF90EF90DF90CF90BF907E
:1007A000AF909F908F90089585ED8093BC008091CD
:1007B000AF019091B001A091B101B091B201079643
:1007C000A11DB11D23E0B695A795979587952A950C
:1007D000D1F72091BC0024FD03C01092AD01089513
:1007E0004091AF015091B0016091B1017091B2019F
:1007F000452B462B472B69F30097A105B10541F026
:1008000025E32A95F1F700000197A109B109E1CF8D
:100810008091AE010C944E021F920F920FB60F9270
:1008200011242F933F934F935F936F937F938F93F5
:100830009F93AF93BF93EF93FF9389ED91E00E9455
:100840000901FF91EF91BF91AF919F918F917F919E
:100850006F915F914F913F912F910F900FBE0F902D
:100860001F9018951F920F920FB60F9211242F937D
:100870008F939F93EF93FF93E091E901F091EA0149
:100880008081E091EF01F091F00182FD1BC0908129
:100890008091F2018F5F8F732091F301821741F0F5
:1008A000E091F201F0E0E752FE4F958F8093F20164
:1008B000FF91EF919F918F912F910F900FBE0F900D
:1008C0001F9018958081F4CF1F920F920FB60F9250
:1008D00011242F933F938F939F93AF93BF93809156
:1008E000D5019091D601A091D701B091D801309156
:1008F000760123E0230F2D3758F50196A11DB11D78
:10090000209376018093D5019093D601A093D701CF
:10091000B093D8018091770190917801A0917901ED
:10092000B0917A010196A11DB11D8093770190933A
:100930007801A0937901B0937A01BF91AF919F9113
:100940008F913F912F910F900FBE0F901F90189590
:1009500026E8230F0296A11DB11DD2CF1F920F9240
:100960000FB60F9211242F933F934F935F936F9382
:100970007F938F939F93AF93BF93EF93FF93809158
:10098000B900887F803609F44AC0F0F5883209F44E
:10099000A7C018F5803109F49BC0B8F4882309F486
:1009A000F9C0883009F494C0FF91EF91BF91AF91E5
:1009B0009F918F917F916F915F914F913F912F9177
:1009C0000F900FBE0F901F901895883109F488C0C2
:1009D000803251F78093AB0114C0803409F49DC07C
:1009E00040F48033B9F38833F9F68093AB0185EC9A
:1009F000B0C0803509F485C0883509F496C08834C4
:100A000099F60E94D403D0CF883909F48CC038F508
:100A1000883729F050F4883611F0803729F683E0C2
:100A20008093AD011092750157C0883809F47BC0DE
:100A3000803919F0803809F0B7CF80917501803284
:100A400008F071C0E091750181E08E0F809375010F
:100A50008091BB00F0E0EB5AFE4F80833DC0803BAD
:100A600039F0E0F4803A09F479C0883A09F09CCF73
:100A700084E08093AD011092540110925301E091F3
:100A80007D01F0917E0109958091530181110FC084
:100A900081E0809353011092330109C0803C09F436
:100AA000A6CF883C09F4A3CF883B09F07DCFE09125
:100AB000540181E08E0F80935401F0E0ED5CFE4F15
:100AC00080818093BB00909154018091530129C093
:100AD0008091A8018093BB0085EC8093BC0064CF1B
:100AE0009091AA018091A901981758F5E091AA0167
:100AF00081E08E0F8093AA01F0E0E957FE4F8081DC
:100B0000E9CFE091AA0181E08E0F8093AA01809144
:100B1000BB00F0E0E957FE4F80839091AA018091DD
:100B2000A9019817C8F285E8D8CFE091AA0181E021
:100B30008E0F8093AA018091BB00F0E0E957FE4F31
:100B400080838091AC0181115CCF81E08093A7010B
:100B500084EA8093BC001092AD0126CF85EC80938F
:100B6000BC001092AD0180917501803230F4E091AB
:100B70007501F0E0EB5AFE4F10826091750170E054
:100B8000E0917B01F0917C0185E591E0099510925F
:100B900075010ACF1092AB0134CFE9EDF1E0138279
:100BA000128288EE93E0A0E0B0E084839583A68370
:100BB000B78324E031E03183208325EC30E03587B2
:100BC000248724EC30E03787268720EC30E0318B17
:100BD000208B21EC30E0338B228B22EC30E0358B04
:100BE000248B26EC30E0378B268B118E128E138EE1
:100BF000148EE6E7F2E01382128284839583A68343
:100C0000B78386E191E0918380830895CF93DF934A
:100C1000CDB7DEB7A1970FB6F894DEBF0FBECDBF3C
:100C2000789484B5826084BD84B5816084BD85B5C7
:100C3000826085BD85B5816085BD80916E008160D3
:100C400080936E0010928100809181008260809379
:100C5000810080918100816080938100809180007B
:100C60008160809380008091B10084608093B100A6
:100C70008091B00081608093B00080917A008460A0
:100C800080937A0080917A00826080937A008091CC
:100C90007A00816080937A0080917A0080688093E6
:100CA0007A001092C1001092B4011092B301109218
:100CB000800110927F010E94300289E890E09093B9
:100CC0007E0180937D018AE890E090937C0180937F
:100CD0007B01E091E901F091EA0182E08083E091FB
:100CE000E501F091E6011082E091E701F091E80161
:100CF0008FEC80831092F101E091ED01F091EE0113
:100D000086E08083E091EB01F091EC0180818061CD
:100D10008083E091EB01F091EC0180818860808319
:100D2000E091EB01F091EC01808180688083E0919B
:100D3000EB01F091EC0180818F7D808325E8222EEC
:100D400021E0322E3AE0432E512C612C712C0E946E
:100D5000BE028F3F29F084E291E00E94B102F7CFFA
:100D600010928601109285010091850110918601F3
:100D70000430110584F40E94BE02F801EF57FE4FC3
:100D800080838091850190918601019690938601E0
:100D900080938501E9CF91E8E92E91E0F92EF701E2
:100DA00021917F0130E050E040E019A28E010F5DFB
:100DB0001F4FCA01B901A30192010E942907605D7A
:100DC000F80162938F01211531054105510589F71D
:100DD000309719F0CF010E94B1028CE291E00E949D
:100DE000B1022E143F04D9F68EE291E00E94B102C6
:100DF0000E94E4014B015C0188ECC82ED12CE12C4F
:100E0000F12C0E94E401681979098A099B09683E5E
:100E1000734081059105A8F3F1E0CF1AD108E108EC
:100E2000F10828EE820E23E0921EA11CB11CC11411
:100E3000D104E104F10429F780E090E0892B09F462
:100E400086CF0E94F500882309F481CF0E9400001C
:100E50007ECFA1E21A2EAA1BBB1BFD010DC0AA1F4B
:100E6000BB1FEE1FFF1FA217B307E407F50720F013
:100E7000A21BB30BE40BF50B661F771F881F991F8E
:100E80001A9469F760957095809590959B01AC01D7
:100E9000BD01CF010895EE0FFF1F0590F491E02DE5
:100EA0000994F894FFCF000000002B018B00B800DC
:100EB0007801E900C700DB00000000009D029202FB
:100EC000AE026F0282007F02700257616974696E20
:080ED000670009000D0A000093
:107E0000112484B714BE81FFF0D085E080938100F7
:107E100082E08093C00088E18093C10086E0809377
:107E2000C20080E18093C4008EE0C9D0259A86E02C
:107E300020E33CEF91E0309385002093840096BBD3
:107E4000B09BFECF1D9AA8958150A9F7CC24DD24C4
:107E500088248394B5E0AB2EA1E19A2EF3E0BF2EE7
:107E6000A2D0813461F49FD0082FAFD0023811F036
:107E7000013811F484E001C083E08DD089C08234E0
:107E800011F484E103C0853419F485E0A6D080C0E4
:107E9000853579F488D0E82EFF2485D0082F10E0AE
:107EA000102F00270E291F29000F111F8ED06801E7
:107EB0006FC0863521F484E090D080E0DECF843638
:107EC00009F040C070D06FD0082F6DD080E0C81688
:107ED00080E7D80618F4F601B7BEE895C0E0D1E017
:107EE00062D089930C17E1F7F0E0CF16F0E7DF06D8
:107EF00018F0F601B7BEE89568D007B600FCFDCFD4
:107F0000A601A0E0B1E02C9130E011968C91119780
:107F100090E0982F8827822B932B1296FA010C0160
:107F200087BEE89511244E5F5F4FF1E0A038BF0790
:107F300051F7F601A7BEE89507B600FCFDCF97BE46
:107F4000E89526C08437B1F42ED02DD0F82E2BD052
:107F50003CD0F601EF2C8F010F5F1F4F84911BD097
:107F6000EA94F801C1F70894C11CD11CFA94CF0C13
:107F7000D11C0EC0853739F428D08EE10CD085E9AC
:107F80000AD08FE07ACF813511F488E018D01DD067
:107F900080E101D065CF982F8091C00085FFFCCF94
:107FA0009093C60008958091C00087FFFCCF809118
:107FB000C00084FD01C0A8958091C6000895E0E648
:107FC000F0E098E1908380830895EDDF803219F02E
:107FD00088E0F5DFFFCF84E1DECF1F93182FE3DFCA
:107FE0001150E9F7F2DF1F91089580E0E8DFEE27F6
:047FF000FF270994CA
:027FFE00040479
:00000001FF
