:100000000C9462000C948A000C948A000C948A0070
:100010000C948A000C948A000C948A000C94C103FE
:100020000C948A000C948A000C948A000C948A0028
:100030000C948A000C948A000C948A000C948A0018
:100040000C9458020C948A000C948A000C948A0038
:100050000C948A000C948A000C948A000C948A00F8
:100060000C94A2020C948A00000000080002010017
:100070000003040700000000000000000000000072
:10008000240027002A000000000023002600290089
:1000900000000000250028002B00040404040404D0
:1000A0000404020202020202030303030303010227
:1000B00004081020408001020408102001020408F6
:1000C0001020E60311241FBECFEFD8E0DEBFCDBF66
:1000D00011E0A0E0B1E0E6E5FBE002C005900D9282
:1000E000A231B107D9F721E0A2E1B1E001C01D9230
:1000F000A13EB207E1F710E0C2E6D0E004C02197CC
:10010000FE010E94A305C136D107C9F70E9435043C
:100110000C94A9050C940000E091B901F091BA018A
:10012000309729F01092B6011092B5010994089504
:10013000089590E0FC01E859FF4F2491FC01E2553D
:10014000FF4F3491FC01E656FF4FE491EE23C9F0D6
:10015000222339F0233001F1A8F4213019F12230A3
:1001600029F1F0E0EE0FFF1FE057FF4FA591B4918A
:100170008FB7F894EC91611126C030953E233C93E3
:100180008FBF08952730A9F02830C9F0243049F7EF
:10019000809180008F7D03C0809180008F77809355
:1001A0008000DFCF84B58F7784BDDBCF84B58F7DB2
:1001B000FBCF8091B0008F778093B000D2CF809139
:1001C000B0008F7DF9CF3E2BDACF3FB7F894809106
:1001D000AD019091AE01A091AF01B091B00126B5F3
:1001E000A89B05C02F3F19F00196A11DB11D3FBF6F
:1001F000BA2FA92F982F8827BC01CD01620F711D3E
:10020000811D911D42E0660F771F881F991F4A9537
:10021000D1F708958F929F92AF92BF92CF92DF92C3
:10022000EF92FF924B015C010E94E5006B017C01A3
:100230000E94E5006C197D098E099F09683E734094
:1002400081059105A8F321E0821A9108A108B1085F
:1002500088EEC80E83E0D81EE11CF11C81149104C5
:10026000A104B10429F7FF90EF90DF90CF90BF90E9
:10027000AF909F908F90089520915E01260F3327B5
:10028000331F21323105ECF420918201FC0190E012
:1002900080E0243069F082E00895A0915E01219110
:1002A000AC01425C5E4FA40FB52FB11D2C9301969B
:1002B000861798F380915E01680F60935E0180E07D
:1002C000089581E008951092820181E08093840175
:1002D0001092830161E082E10E94990061E083E174
:1002E0000E949900E9EBF0E080818E7F808380811D
:1002F0008D7F808388E48093B80085E48093BC0080
:1003000008950895E091B8018091B701E81730F49D
:10031000F0E0E85EFE4F808190E008958FEF9FEF60
:1003200008959091B8018091B7012FEF3FEF981792
:1003300048F4E92FF0E0E85EFE4F208130E09F5F57
:100340009093B801C90108958091B7019091B801C7
:10035000891B990B0895CF93DF93CB01EA01642F9A
:100360000E943C01CE01DF91CF910895CF93DF939E
:100370001F92CDB7DEB7698361E0CE0101960E947E
:100380003C0181E090E00F90DF91CF910895CF93F1
:10039000DF93C0911601D0911701C230D10519F138
:1003A000A4F42097D9F0C130D105D1F083EC91E0CD
:1003B0000E94B6012196C530D105DCF4D093170117
:1003C000C0931601DF91CF910895C330D10571F02C
:1003D000C430D10559F76091C101E8CF6FEFE6CF86
:1003E0006091BB01E3CF6091BD01E0CF6091BF019F
:1003F000DDCF1092170110921601E4CF90E080E05B
:100400000895CF93DF9385ED8093BC0080913A01EE
:1004100090913B01A0913C01B0913D010796A11D37
:10042000B11D23E0B695A795979587952A95D1F7A5
:100430002091BC0024FD03C01092820136C040917F
:100440003A0150913B0160913C0170913D01452B77
:10045000462B472B69F30097A105B10541F025E331
:100460002A95F1F700000197A109B109E1CF809128
:10047000390191E0909338018823B9F0C091B80018
:10048000D091BA008091BC008A7B8093BC0060E070
:1004900082E10E94990060E083E10E9499000E943D
:1004A0006301D093BA00C093B800DF91CF91089553
:1004B0001F920F920FB60F9211242F933F938F9399
:1004C0009F93AF93BF938091A9019091AA01A091AE
:1004D000AB01B091AC013091A80123E0230F2D377F
:1004E00058F50196A11DB11D2093A8018093A90183
:1004F0009093AA01A093AB01B093AC018091AD01A0
:100500009091AE01A091AF01B091B0010196A11DF3
:10051000B11D8093AD019093AE01A093AF01B09354
:10052000B001BF91AF919F918F913F912F910F900B
:100530000FBE0F901F90189526E8230F0296A11D5D
:10054000B11DD2CF1F920F920FB60F9211242F938D
:100550003F934F935F936F937F938F939F93AF934B
:10056000BF93EF93FF938091B900887F803609F4A1
:100570004AC0F0F5883209F4A7C018F5803109F4B3
:100580009BC0B8F4882309F4F9C0883009F494C0FA
:10059000FF91EF91BF91AF919F918F917F916F915B
:1005A0005F914F913F912F910F900FBE0F901F9031
:1005B0001895883109F488C0803251F78093810101
:1005C00014C0803409F49DC040F48033B9F38833FB
:1005D000F9F68093810185ECB0C0803509F485C0BF
:1005E000883509F496C0883499F60E940102D0CF6C
:1005F000883909F48CC038F5883729F050F48836EA
:1006000011F0803729F683E08093820110928001F7
:1006100057C0883809F47BC0803919F0803809F058
:10062000B7CF80918001803208F071C0E0918001E5
:1006300081E08E0F809380018091BB00F0E0E05A52
:10064000FE4F80833DC0803B39F0E0F4803A09F4EE
:1006500079C0883A09F09CCF84E08093820110929F
:100660005F0110925E01E091B301F091B401099530
:1006700080915E0181110FC081E080935E01109234
:100680003E0109C0803C09F4A6CF883C09F4A3CF01
:10069000883B09F07DCFE0915F0181E08E0F809370
:1006A0005F01F0E0E25CFE4F80818093BB0090919F
:1006B0005F0180915E0129C08091A7018093BB00FA
:1006C00085EC8093BC0064CF9091A6018091A50138
:1006D000981758F5E091A60181E08E0F8093A6014E
:1006E000F0E0EB57FE4F8081E9CFE091A60181E079
:1006F0008E0F8093A6018091BB00F0E0EB57FE4F78
:1007000080839091A6018091A5019817C8F285E891
:10071000D8CFE091A60181E08E0F8093A601809151
:10072000BB00F0E0EB57FE4F808380918401811184
:100730005CCF81E08093830184EA8093BC001092B7
:10074000820126CF85EC8093BC00109282018091BB
:100750008001803230F4E0918001F0E0E05AFE4FF9
:1007600010826091800170E0E091B101F091B201DE
:1007700080E691E00995109280010ACF10928101E4
:1007800034CF1F920F920FB60F9211242F933F93E5
:100790004F935F936F937F938F939F93AF93BF9389
:1007A000EF93FF93F0E0E0E00995FF91EF91BF91A7
:1007B000AF919F918F917F916F915F914F913F91F9
:1007C0002F910F900FBE0F901F901895E3ECF1E062
:1007D0001382128288EE93E0A0E0B0E084839583D8
:1007E000A683B78384E091E091838083E6EBF0E019
:1007F0008491AFECB1E014968C931497E491159624
:10080000EC93159782EA90E0FC012491E22FF0E04E
:10081000EE0FFF1FE057FF4F2591349117963C9341
:100820002E931697FC012491E22FF0E0EE0FFF1FAC
:10083000EA57FF4F2591349119963C932E931897C0
:10084000FC018491E82FF0E0EE0FFF1FE458FF4F0A
:10085000859194911B969C938E931A978DE19AE3C0
:100860001D969C938E931C970895789484B582600E
:1008700084BD84B5816084BD85B5826085BD85B544
:10088000816085BD80916E00816080936E001092C2
:10089000810080918100826080938100809181003D
:1008A00081608093810080918000816080938000CE
:1008B0008091B10084608093B1008091B00081602C
:1008C0008093B00080917A00846080937A00809158
:1008D0007A00826080937A0080917A0081608093B0
:1008E0007A0080917A00806880937A001092C1002B
:1008F0001092B8011092B7011092B6011092B50192
:100900000E9463018CE890E09093B4018093B3015E
:1009100088E990E09093B2018093B10182E18093E5
:10092000BA0087EC91E09093BA018093B901CBE0D3
:10093000D0E003E210E089E3882E912CA12CB12CA9
:1009400090E0E92E90E0F92E2EEFC22ED12CE0910E
:10095000D901F091DA0180819091D301892B8083B4
:10096000E091D501F091D60190818091D3018095DD
:1009700089238083CE010197F1F7E091D501F091B1
:10098000D60180819091D301892B8083C801019782
:10099000F1F7E091D501F091D60190818091D301DA
:1009A000809589238083E091D901F091DA019081CB
:1009B0008091D301809589238083E091D701F091C4
:1009C000D80180819091D401892321F190E080E0C9
:1009D000BC0190E080E0A50194010E9481052F3FB9
:1009E00031050CF089C03093BC012093BB0164E158
:1009F00070E080E090E00E940A0164EF71E080E026
:100A000090E00E940A01E114F10409F4A0CF0E94D1
:100A100000009DCF0E94E500AB01BC018091DB018D
:100A20009091DC01B0E0A0E08855994EAF4FBF4FE8
:100A3000840F951FA61FB71F8093DD019093DE01E1
:100A4000A093DF01B093E001E091D701F091D801CC
:100A500080819091D401892381F40E94E500409027
:100A6000DD015090DE016090DF017090E0014616DC
:100A700057066806790640F7A9CF0E94E500209145
:100A8000DB013091DC01620F731F811D911D6093AA
:100A9000DD017093DE018093DF019093E001E0912E
:100AA000D701F091D80180819091D401892381F000
:100AB0000E94E5004090DD015090DE016090DF0172
:100AC0007090E001461657066806790640F77ECF1B
:100AD0000E94E5002091DB013091DC01A901455025
:100AE00051092091DD013091DE01FA01E21BF30B87
:100AF000CF01860F971F6CCFD092BC01C092BB0173
:100B000076CFA1E21A2EAA1BBB1BFD010DC0AA1FA6
:100B1000BB1FEE1FFF1FA217B307E407F50720F066
:100B2000A21BB30BE40BF50B661F771F881F991FE1
:100B30001A9469F760957095809590959B01AC012A
:100B4000BD01CF010895EE0FFF1F0590F491E02D38
:060B50000994F894FFCFA8
:100B560000000000B601AB01FE018101A401910174
:020B660082010A
:00000001FF
