:100000000C9458000C9480000C9480000C94800098
:100010000C9480000C9480000C9480000C94D90205
:100020000C9480000C9480000C9480000C94800050
:100030000C9480000C9480000C9480000C94800040
:100040000C948F020C9480000C945D020C94370287
:100050000C9480000C9480000C9480000C94800020
:100060000C9480000C948000000000002400270005
:100070002A000000000023002600290000000000E4
:10008000250028002B0004040404040404040202D4
:100090000202020203030303030301020408102007
:1000A0004080010204081020010204081020FE0212
:1000B00011241FBECFEFD8E0DEBFCDBF11E0A0E01E
:1000C000B1E0EAE2FFE002C005900D92A034B10772
:1000D000D9F722E0A0E4B1E001C01D92A030B20740
:1000E000E1F710E0C8E5D0E004C02197FE010E94CE
:1000F0008D07C735D107C9F70E9469030C94930790
:100100000C940000AF92BF92CF92DF92EF92FF92D9
:100110000F931F93CF93DF936C017B018B01040F2F
:10012000151FEB015E01AE18BF08C017D10759F0CB
:100130006991D601ED91FC910190F081E02DC6010D
:100140000995892B79F7C501DF91CF911F910F9107
:10015000FF90EF90DF90CF90BF90AF900895FC019B
:10016000538D448D252F30E0842F90E0821B930B1C
:10017000541710F0CF96089501970895FC01918DC2
:10018000828D981761F0A28DAE0FBF2FB11D5D96C5
:100190008C91928D9F5F9F73928F90E008958FEF67
:1001A0009FEF0895FC01918D828D981731F0828D1B
:1001B000E80FF11D858D90E008958FEF9FEF089572
:1001C000FC01918D228D892F90E0805C9F4F821BD6
:1001D00091098F739927089581E591E00E94E000CD
:1001E00021E0892B09F420E0822F089580E090E03F
:1001F000892B29F00E94EC0081110C9400000895D5
:10020000FC01A48DA80FB92FB11DA35ABF4F2C918B
:10021000848D90E001968F739927848FA689B78982
:100220002C93A089B1898C91837080648C93938D79
:10023000848D981306C00288F389E02D80818F7D1C
:1002400080830895EF92FF920F931F93CF93DF93D4
:10025000EC0181E0888F9B8D8C8D98131AC0E88902
:10026000F989808185FF15C09FB7F894EE89FF89D1
:100270006083E889F98980818370806480839FBF6F
:1002800081E090E0DF91CF911F910F91FF90EF906F
:100290000895F62E0B8D10E00F5F1F4F0F7311277F
:1002A000E02E8C8D8E110CC00FB607FCFACFE889BA
:1002B000F989808185FFF5CFCE010E940001F1CF41
:1002C000EB8DEC0FFD2FF11DE35AFF4FF0829FB72E
:1002D000F8940B8FEA89FB8980818062CFCFCF931E
:1002E000DF93EC01888D8823B9F0AA89BB89E8895E
:1002F000F9898C9185FD03C0808186FD0DC00FB604
:1003000007FCF7CF8C9185FFF2CF808185FFEDCF81
:10031000CE010E940001E9CFDF91CF9108953FB750
:10032000F8948091490190914A01A0914B01B091BC
:100330004C0126B5A89B05C02F3F19F00196A11DC1
:10034000B11D3FBFBA2FA92F982F8827BC01CD011F
:10035000620F711D811D911D42E0660F771F881F7E
:10036000991F4A95D1F708958F929F92AF92BF92AD
:10037000CF92DF92EF92FF924B015C010E948F01BE
:100380006B017C010E948F016C197D098E099F0908
:10039000683E734081059105A8F321E0821A910817
:1003A000A108B10888EEC80E83E0D81EE11CF11C3C
:1003B00081149104A104B10429F7FF90EF90DF901C
:1003C000CF90BF90AF909F908F900895FC010190C7
:1003D0000020E9F73197AF01481B590BBC0181E5BB
:1003E00091E00C9482008F929F92AF92BF920F93F4
:1003F0001F93CF93DF93CDB7DEB7A1970FB6F894D5
:10040000DEBF0FBECDBF19A2423008F44AE08E0114
:100410000F5D1F4F842E912CB12CA12CA5019401AE
:100420000E946B07E62FB901CA01EA30F4F4E05DDF
:10043000D801EE938D01232B242B252B79F790E007
:1004400080E0109719F0CD010E94E601A1960FB649
:10045000F894DEBF0FBECDBFDF91CF911F910F91FA
:10046000BF90AF909F908F900895E95CE1CF1F926D
:100470000F920FB60F9211242F933F934F935F93D8
:100480006F937F938F939F93AF93BF93EF93FF935C
:1004900081E591E00E940001FF91EF91BF91AF9142
:1004A0009F918F917F916F915F914F913F912F918C
:1004B0000F900FBE0F901F9018951F920F920FB6BE
:1004C0000F9211242F938F939F93EF93FF93E091BB
:1004D0006101F09162018081E0916701F091680112
:1004E00082FD1BC0908180916A018F5F8F73209184
:1004F0006B01821741F0E0916A01F0E0EF5AFE4F84
:10050000958F80936A01FF91EF919F918F912F9129
:100510000F900FBE0F901F9018958081F4CF1F92FF
:100520000F920FB60F9211242F933F938F939F93A7
:10053000AF93BF938091450190914601A0914701EF
:10054000B09148013091440123E0230F2D3758F535
:100550000196A11DB11D2093440180934501909304
:100560004601A0934701B0934801809149019091C1
:100570004A01A0914B01B0914C010196A11DB11D02
:100580008093490190934A01A0934B01B0934C0191
:10059000BF91AF919F918F913F912F910F900FBE7F
:1005A0000F901F90189526E8230F0296A11DB11DEC
:1005B000D2CF1F920F920FB60F9211242F933F9319
:1005C0004F935F936F937F938F939F93AF93BF935B
:1005D000EF93FF93F0E0E0E00995FF91EF91BF9179
:1005E000AF919F918F917F916F915F914F913F91CB
:1005F0002F910F900FBE0F901F901895E1E5F1E03D
:100600001382128288EE93E0A0E0B0E084839583A9
:10061000A683B78384E091E09183808385EC90E0AA
:100620009587848784EC90E09787868780EC90E0BC
:10063000918B808B81EC90E0938B828B82EC90E0AD
:10064000958B848B86EC90E0978B868B118E128E27
:10065000138E148EE2EAF0E08491AEEEB1E01496CF
:100660008C931497E4911596EC9315978EE890E08F
:10067000FC012491E22FF0E0EE0FFF1FE458FF4F42
:100680002591349117963C932E931697FC01249153
:10069000E22FF0E0EE0FFF1FEE58FF4F259134914F
:1006A00019963C932E931897FC018491E82FF0E063
:1006B000EE0FFF1FE859FF4F859194911B969C9375
:1006C0008E931A9789E499E51D969C938E931C97B7
:1006D0000895789484B5826084BD84B5816084BDBA
:1006E00085B5826085BD85B5816085BD80916E00D0
:1006F000816080936E001092810080918100826001
:10070000809381008091810081608093810080913D
:1007100080008160809380008091B100846080932C
:10072000B1008091B00081608093B00080917A0028
:10073000846080937A0080917A00826080937A004E
:1007400080917A00816080937A0080917A0080683D
:1007500080937A001092C100E0916101F0916201F2
:1007600082E08083E0915D01F0915E011082E09172
:100770005F01F09160018FEC808310926901E0913C
:100780006501F091660186E08083E0916301F0915C
:100790006401808180618083E0916301F091640154
:1007A000808188608083E0916301F09164018081A1
:1007B00080688083E0916301F091640180818F7D86
:1007C00080838BE0282E312C03E210E099E3892E00
:1007D000912CA12CB12CC0E0D0E0E091F801F09177
:1007E000F90180819091F201892B8083E091F401DD
:1007F000F091F50190818091F201809589238083A9
:10080000C1010197F1F7E091F401F091F5018081C8
:100810009091F201892B8083C8010197F1F7E09153
:10082000F401F091F50190818091F2018095892386
:100830008083E091F801F091F90190818091F201BB
:10084000809589238083E091F601F091F701808102
:100850009091F301892309F455C090E080E0BC0138
:1008600090E080E0A50194010E946B07CA01B901E4
:100870000E94420660934D0170934E0180934F0198
:100880009093500164E170E080E090E00E94B40138
:1008900082E191E00E94E601C0904D01D0904E01AE
:1008A000E0904F01F090500120E030E048EC53E43C
:1008B000C701B6010E94F40687FF0BC020E030E0BC
:1008C00040E050E4C701B6010E940E0618160CF471
:1008D0008BC080E291E00E94E6018DE291E00E94EF
:1008E000E60164EF71E080E090E00E94B40120979F
:1008F00009F473CF0E94EC00882309F46ECF0E94A4
:1009000000006BCF0E948F01AB01BC018091FA0106
:100910009091FB01B0E0A0E08855994EAF4FBF4FDA
:10092000840F951FA61FB71F8093FC019093FD01B4
:10093000A093FE01B093FF01E091F601F091F70161
:1009400080819091F301892381F40E948F01C090EE
:10095000FC01D090FD01E090FE01F090FF01C61671
:10096000D706E806F90640F778CF0E948F0120915C
:10097000FA013091FB01620F731F811D911D60937D
:10098000FC017093FD018093FE019093FF01E091C3
:10099000F601F091F70180819091F301892381F0B4
:1009A0000E948F01C090FC01D090FD01E090FE01FB
:1009B000F090FF01C616D706E806F90640F74DCFBE
:1009C0000E948F012091FA013091FB01A90145504D
:1009D00051092091FC013091FD01FA01E21BF30B5A
:1009E000CF01860F971F3BCFA7019601C701B60124
:1009F0000E946607882399F080E391E00E94E60157
:100A00008CE391E00E94E6018DE291E00E94E60114
:100A100064EF71E080E090E00E94B40162CF2601B3
:100A20003701E89477F82FEF3FEF4FE75FE7C30117
:100A3000B2010E94660781110DC02FEF3FEF4FE713
:100A40005FE7C301B2010E940E0618161CF484E38E
:100A500091E0D4CF2FEF3FEF4FE75FE4C701B6013E
:100A60000E94F40618161CF488E391E0C7CF2FEF1C
:100A70003FEF4FE75FECC701B6010E940E0687FD0E
:100A8000F3CF20E030E0A901C701B6010E940E06B5
:100A900087FF09C06DE281E591E00E942201F7FA2B
:100AA000F094F7F8F0942AE037ED43EA5BE3C701EE
:100AB000B6010E94A2052B013C010E9413066B01A6
:100AC0007C010E9442069B01AC01C301B2010E945D
:100AD000A1052B013C014AE0C701B6010E94F301C8
:100AE0006EE281E591E00E94220120E030E040E2E8
:100AF00051E4C301B2010E94F9062B013C010E949E
:100B000013066B01F12CE12C4AE0C701B6010E94EB
:100B1000F301C701B6010E9442069B01AC01C3016B
:100B2000B2010E94A10520E030E040E251E40E94C1
:100B3000F9060E94130690E080E04AE00E94F3016B
:100B40005FCF5058BB27AA270E94B9050C94BA065C
:100B50000E94AC0638F00E94B30620F039F49F3FA3
:100B600019F426F40C94A9060EF4E095E7FB0C9416
:100B7000A306E92F0E94CB0658F3BA176207730742
:100B80008407950720F079F4A6F50C94ED060EF491
:100B9000E0950B2EBA2FA02D0B01B90190010C018D
:100BA000CA01A0011124FF27591B99F0593F50F4A5
:100BB000503E68F11A16F040A22F232F342F4427FD
:100BC000585FF3CF469537952795A795F0405395F5
:100BD000C9F77EF41F16BA0B620B730B840BBAF0C5
:100BE0009150A1F0FF0FBB1F661F771F881FC2F730
:100BF0000EC0BA0F621F731F841F48F48795779544
:100C00006795B795F7959E3F08F0B0CF9395880FFD
:100C100008F09927EE0F9795879508950E947F0613
:100C200008F481E008950E94D30688F09F5798F059
:100C3000B92F9927B751B0F0E1F0660F771F881FE1
:100C4000991F1AF0BA95C9F714C0B13091F00E94FB
:100C5000ED06B1E008950C94ED06672F782F8827F4
:100C6000B85F39F0B93FCCF3869577956795B39522
:100C7000D9F73EF490958095709561957F4F8F4F91
:100C80009F4F0895E89409C097FB3EF49095809596
:100C9000709561957F4F8F4F9F4F9923A9F0F92F42
:100CA00096E9BB279395F695879577956795B795C0
:100CB000F111F8CFFAF4BB0F11F460FF1BC06F5FA6
:100CC0007F4F8F4F9F4F16C0882311F096E911C0B8
:100CD000772321F09EE8872F762F05C0662371F0D9
:100CE00096E8862F70E060E02AF09A95660F771FED
:100CF000881FDAF7880F9695879597F90895990FC9
:100D00000008550FAA0BE0E8FEEF16161706E807D5
:100D1000F907C0F012161306E407F50798F0621BF6
:100D2000730B840B950B39F40A2661F0232B242BCB
:100D3000252B21F408950A2609F4A140A6958FEFEA
:100D4000811D811D089597F99F6780E870E060E03C
:100D500008959FEF80EC089500240A941616170654
:100D600018060906089500240A941216130614069C
:100D700005060895092E0394000C11F4882352F0FF
:100D8000BB0F40F4BF2B11F460FF04C06F5F7F4FB7
:100D90008F4F9F4F089557FD9058440F551F59F09E
:100DA0005F3F71F04795880F97FB991F61F09F3F58
:100DB00079F087950895121613061406551FF2CF81
:100DC0004695F1DF08C0161617061806991FF1CFD1
:100DD00086957105610508940895E894BB276627F8
:100DE0007727CB0197F908950E947F0608F48FEFCB
:100DF00008950E940C070C94BA060E94AC0638F0C5
:100E00000E94B30620F0952311F00C94A3060C94D5
:100E1000A90611240C94EE060E94CB0670F3959F50
:100E2000C1F3950F50E0551F629FF001729FBB27E1
:100E3000F00DB11D639FAA27F00DB11DAA1F649F7D
:100E40006627B00DA11D661F829F2227B00DA11D30
:100E5000621F739FB00DA11D621F839FA00D611DB6
:100E6000221F749F3327A00D611D231F849F600DD7
:100E7000211D822F762F6A2F11249F5750409AF000
:100E8000F1F088234AF0EE0FFF1FBB1F661F771F8C
:100E9000881F91505040A9F79E3F510580F00C9457
:100EA000A3060C94EE065F3FE4F3983ED4F38695D8
:100EB00077956795B795F795E7959F5FC1F7FE2BF7
:100EC000880F911D9695879597F908950E947F0642
:100ED000880B990B0895A1E21A2EAA1BBB1BFD01DA
:100EE0000DC0AA1FBB1FEE1FFF1FA217B307E40709
:100EF000F50720F0A21BB30BE40BF50B661F771F61
:100F0000881F991F1A9469F7609570958095909540
:100F10009B01AC01BD01CF010895EE0FFF1F0590AD
:0A0F2000F491E02D0994F894FFCF3E
:100F2A000000000022018200AF006F01E000BE0055
:100F3A00D20044697374616E63652030203D2000DD
:100F4A004F7574206F662072616E6765000D0A0026
:100F5A006E616E00696E66006F76660020636D00D2
:00000001FF
