:100000000C9462000C948A000C948A000C948A0070
:100010000C948A000C948A000C948A000C948A0038
:100020000C948A000C948A000C948A000C948A0028
:100030000C948A000C948A000C948A000C948A0018
:100040000C94B8020C9402030C9486020C94600287
:100050000C948A000C948A000C948A000C948A00F8
:100060000C948A000C948A000000000024002700F1
:100070002A000000000023002600290000000000E4
:10008000250028002B0004040404040404040202D4
:100090000202020203030303030301020408102007
:1000A0004080010204081020010204081020000012
:1000B0000008000201000003040700000000000027
:1000C00000001D0411241FBECFEFD8E0DEBFCDBF5E
:1000D00011E0A0E0B1E0E4EAF8E002C005900D9282
:1000E000A033B107D9F721E0A0E3B1E001C01D9230
:1000F000AB3DB207E1F710E0C2E6D0E004C02197C3
:10010000FE010E944A04C136D107C9F70E941403B8
:100110000C9450040C940000AF92BF92CF92DF92E7
:10012000EF92FF920F931F93CF93DF936C017B01AC
:100130008B01040F151FEB015E01AE18BF08C0173D
:10014000D10759F06991D601ED91FC910190F081B0
:10015000E02DC6010995892B79F7C501DF91CF9173
:100160001F910F91FF90EF90DF90CF90BF90AF90D5
:100170000895FC01538D448D252F30E0842F90E0AD
:10018000821B930B541710F0CF9608950197089592
:10019000FC01918D828D981761F0A28DAE0FBF2F5B
:1001A000B11D5D968C91928D9F5F9F73928F90E0B1
:1001B00008958FEF9FEF0895FC01918D828D981720
:1001C00031F0828DE80FF11D858D90E008958FEF5D
:1001D0009FEF0895FC01918D228D892F90E0805C26
:1001E0009F4F821B91098F73992708958EE391E0A9
:1001F0000E94EA0021E0892B09F420E0822F089573
:1002000080E090E0892B29F00E94F60081110C9487
:1002100000000895FC01A48DA80FB92FB11DA35AA9
:10022000BF4F2C91848D90E001968F739927848F16
:10023000A689B7892C93A089B1898C918370806439
:100240008C93938D848D981306C00288F389E02DDA
:1002500080818F7D80830895EF92FF920F931F938B
:10026000CF93DF93EC0181E0888F9B8D8C8D981369
:100270001AC0E889F989808185FF15C09FB7F89475
:10028000EE89FF896083E889F989808183708064C1
:1002900080839FBF81E090E0DF91CF911F910F910C
:1002A000FF90EF900895F62E0B8D10E00F5F1F4F1B
:1002B0000F731127E02E8C8D8E110CC00FB607FC2A
:1002C000FACFE889F989808185FFF5CFCE010E94B8
:1002D0000A01F1CFEB8DEC0FFD2FF11DE35AFF4F1B
:1002E000F0829FB7F8940B8FEA89FB898081806246
:1002F000CFCFCF93DF93EC01888D8823B9F0AA8903
:10030000BB89E889F9898C9185FD03C0808186FDD0
:100310000DC00FB607FCF7CF8C9185FFF2CF80811F
:1003200085FFEDCFCE010E940A01E9CFDF91CF9189
:100330000895833081F028F4813099F08230A9F05B
:1003400008958730A9F08830C9F08430B1F48091E5
:1003500080008F7D03C0809180008F778093800024
:10036000089584B58F7784BD089584B58F7DFBCFC4
:100370008091B0008F778093B00008958091B00095
:100380008F7DF9CF1F93CF93DF93E5EBF0E094914E
:10039000E1EAF0E0D491EDE8F0E0C491CC23B9F0CB
:1003A000182F992319F0892F0E949901EC2FF0E062
:1003B000EE0FFF1FE458FF4FA591B4918FB7F8944B
:1003C000EC91111108C0D095DE23DC938FBFDF9133
:1003D000CF911F910895DE2BF8CFCF93DF9390E05C
:1003E000FC01E656FF4F24918A579F4FFC018491F0
:1003F0008823D1F090E0880F991FFC01E859FF4F46
:10040000A591B491FC01E458FF4FC591D4916111BD
:100410000EC09FB7F8948C91E22FE0958E238C93B9
:100420002881E223E8839FBFDF91CF9108958FB7A2
:10043000F894EC91E22BEC938FBFF6CF3FB7F89492
:100440008091350190913601A0913701B09138012A
:1004500026B5A89B05C02F3F19F00196A11DB11D1F
:100460003FBFBA2FA92F982F8827BC01CD01620F5B
:10047000711D811D911D42E0660F771F881F991F16
:100480004A95D1F70895CF93DF93FC0101900020A6
:10049000E9F73197AF01481B590BBC018EE391E09E
:1004A0000E948C00EC0142E050E062E171E08EE3DA
:1004B00091E00E948C008C0F9D1FDF91CF910895D9
:1004C0001F920F920FB60F9211242F933F934F93C9
:1004D0005F936F937F938F939F93AF93BF93EF93AC
:1004E000FF938EE391E00E940A01FF91EF91BF918B
:1004F000AF919F918F917F916F915F914F913F91BC
:100500002F910F900FBE0F901F9018951F920F9272
:100510000FB60F9211242F938F939F93EF93FF9316
:10052000E0914E01F0914F018081E0915401F091F2
:10053000550182FD1BC09081809157018F5F8F73A1
:1005400020915801821741F0E0915701F0E0E25C00
:10055000FE4F958F80935701FF91EF919F918F915F
:100560002F910F900FBE0F901F9018958081F4CFA0
:100570001F920F920FB60F9211242F933F938F93D8
:100580009F93AF93BF938091310190913201A091DD
:100590003301B09134013091300123E0230F2D3726
:1005A00058F50196A11DB11D2093300180933101B2
:1005B00090933201A0933301B093340180913501BF
:1005C00090913601A0913701B09138010196A11D9B
:1005D000B11D8093350190933601A0933701B093FC
:1005E0003801BF91AF919F918F913F912F910F90C3
:1005F0000FBE0F901F90189526E8230F0296A11D9D
:10060000B11DD2CF1F920F920FB60F9211248F936C
:100610008EB580933C0181E080933D018F910F90D6
:100620000FBE0F901F901895789484B5826084BD9A
:1006300084B5816084BD85B5826085BD85B58160E6
:1006400085BD80916E00816080936E001092810064
:10065000809181008260809381008091810081601F
:1006600080938100809180008160809380008091E0
:10067000B10084608093B1008091B000816080936C
:10068000B00080917A00846080937A0080917A0033
:10069000826080937A0080917A00816080937A00F2
:1006A00080917A00806880937A001092C100E09176
:1006B0004E01F0914F0182E08083E0914A01F09178
:1006C0004B011082E0914C01F0914D0180E180835B
:1006D00010925601E0915201F091530186E080831F
:1006E000E0915001F0915101808180618083E0911F
:1006F0005001F0915101808188608083E091500128
:10070000F0915101808180688083E0915001F091E7
:10071000510180818F7D808360E082E00E94ED0145
:1007200061E087E00E94ED0161E08CE00E94ED0154
:100730008CB580648CBD10923D018CB580688CBDF9
:1007400020EB222E20E0322E3CE9832E30E0932E47
:1007500008E810E0C0E0D0E0AA24A394B12C809176
:100760003D01882309F453C080913C01813009F098
:1007700059C00E94C20185E191E00E944302F1014B
:100780008491F401F490F801E490EE2009F450C053
:1007900081110E949901EE2DF0E0EE0FFF1FEE583F
:1007A000FF4FA591B4918C91F82209F441C0B09209
:1007B0003B01A0923A0180913A01809339018091E6
:1007C00039018EBD0E941E022B013C0188EEC82E0D
:1007D00083E0D82EE12CF12C0E941E0264197509C9
:1007E00086099709683E734081059105A8F3F1E0F9
:1007F000CF1AD108E108F10828EE420E23E0521E7C
:10080000611C711CC114D104E104F10429F7209783
:1008100009F4A5CF0E94F600882309F4A0CF0E9416
:1008200000009DCF80E00E94C20182E291E0A5CF4E
:1008300010923B0110923A01BECFEEE3F1E0138239
:10084000128288EE93E0A0E0B0E084839583A683D3
:10085000B78384E091E09183808385EC90E0958775
:10086000848784EC90E09787868780EC90E0918B7A
:10087000808B81EC90E0938B828B82EC90E0958B67
:10088000848B86EC90E0978B868B118E128E138E64
:10089000148E0895EE0FFF1F0590F491E02D09943A
:0408A000F894FFCFFA
:1008A400000000002C018C00B9007901EA00C800A6
:1008B400DC000D0A00536C617665204C4544204FE2
:1008C4004E00536C617665204C4544204F464600EB
:00000001FF
