:020000040000FA
:100000000C945D000C9485000C9485000C94850084
:100010000C9485000C9485000C9485000C9485004C
:100020000C9485000C9485000C9485000C9485003C
:100030000C9485000C9485000C9485000C9485002C
:100040000C9427040C9485000C94F5030C94CF03B6
:100050000C9485000C9485000C9485000C9485000C
:100060000C9471040C94850000000008000201004B
:100070000003040700000000000000000000000072
:10008000250028002B0000000000240027002A0083
:10009000040404040404040402020202020203032E
:1000A0000303030301020408102040800102040836
:1000B0001020010204081020900511241FBECFEF6C
:1000C000D8E0DEBFCDBF11E0A0E0B1E0EEE5FEE09C
:1000D00002C005900D92A034B107D9F722E0A0E448
:1000E000B1E001C01D92A039B207E1F710E0CDE503
:1000F000D0E004C02197FE010E942707CC35D1072C
:10010000C9F70E94C9050C942D070C9400000895AE
:10011000CF93DF93AC01E091E101F091E2013097E0
:10012000F1F09091E0018091DF019817C0F090E02C
:10013000292F30E02617370754F4D901A05CBE4FB1
:10014000240F351FE90128812C939F5FF1CF109276
:10015000E0016093DF01CB01DF91CF910994DF9142
:10016000CF910895AF92BF92CF92DF92EF92FF921C
:100170000F931F93CF93DF936C017B018B01040FCF
:10018000151FEB015E01AE18BF08C017D10759F06B
:100190006991D601ED91FC910190F081E02DC601AD
:1001A0000995892B79F7C501DF91CF911F910F91A7
:1001B000FF90EF90DF90CF90BF90AF900895FC013B
:1001C000538D448D252F30E0842F90E0821B930BBC
:1001D000541710F0CF96089501970895FC01918D62
:1001E000828D981761F0A28DAE0FBF2FB11D5D9665
:1001F0008C91928D9F5F9F73928F90E008958FEF07
:100200009FEF0895FC01918D828D981731F0828DBA
:10021000E80FF11D858D90E008958FEF9FEF089511
:10022000FC01918D228D892F90E0805C9F4F821B75
:1002300091098F739927089587EE91E00E9410012C
:1002400021E0892B09F420E0822F089580E090E0DE
:10025000892B29F00E941C0181110C940000089543
:10026000FC01A48DA80FB92FB11DA35ABF4F2C912B
:10027000848D90E001968F739927848FA689B78922
:100280002C93A089B1898C91837080648C93938D19
:10029000848D981306C00288F389E02D80818F7DBC
:1002A00080830895EF92FF920F931F93CF93DF9374
:1002B000EC0181E0888F9B8D8C8D98131AC0E889A2
:1002C000F989808185FF15C09FB7F894EE89FF8971
:1002D0006083E889F98980818370806480839FBF0F
:1002E00081E090E0DF91CF911F910F91FF90EF900F
:1002F0000895F62E0B8D10E00F5F1F4F0F7311271F
:10030000E02E8C8D8E110CC00FB607FCFACFE88959
:10031000F989808185FFF5CFCE010E943001F1CFB0
:10032000EB8DEC0FFD2FF11DE35AFF4FF0829FB7CD
:10033000F8940B8FEA89FB8980818062CFCFCF93BD
:10034000DF93EC01888D8823B9F0AA89BB89E889FD
:10035000F9898C9185FD03C0808186FD0DC00FB6A3
:1003600007FCF7CF8C9185FFF2CF808185FFEDCF21
:10037000CE010E943001E9CFDF91CF91089590E046
:10038000FC01E859FF4F2491FC01EC55FF4F3491DB
:10039000FC01E057FF4FE491EE23C9F0222339F02E
:1003A000233001F1A8F4213019F1223029F1F0E0D5
:1003B000EE0FFF1FE458FF4FA591B4918FB7F8944B
:1003C000EC91611126C030953E233C938FBF089578
:1003D0002730A9F02830C9F0243049F780918000F7
:1003E0008F7D03C0809180008F7780938000DFCF66
:1003F00084B58F7784BDDBCF84B58F7DFBCF8091B3
:10040000B0008F778093B000D2CF8091B0008F7D05
:10041000F9CF3E2BDACF3FB7F8948091D501909178
:10042000D601A091D701B091D80126B5A89B05C0EF
:100430002F3F19F00196A11DB11D3FBFBA2FA92F63
:10044000982F8827BC01CD01620F711D811D911D60
:1004500042E0660F771F881F991F4A95D1F70895CC
:100460008F929F92AF92BF92CF92DF92EF92FF92C4
:100470006B017C010E940B024B015C01C114D10491
:10048000E104F104B9F00E940B02681979098A09A4
:100490009B09683E73408105910580F321E0C21AF3
:1004A000D108E108F10888EE880E83E0981EA11CAF
:1004B000B11CE4CFFF90EF90DF90CF90BF90AF9052
:1004C0009F908F90089520918601260F3327331F28
:1004D00021323105ECF42091AA01FC0190E080E08A
:1004E000243069F082E00895A09186012191AC0149
:1004F0004A595E4FA40FB52FB11D2C930196861754
:1005000098F380918601680F6093860180E00895DA
:1005100081E008951092AA0181E08093AC011092CD
:10052000AB0161E082E10E94BF0161E083E10E94D2
:10053000BF01E9EBF0E080818E7F808380818D7F39
:10054000808388E48093B80085E48093BC0008959C
:100550000895E091E0018091DF01E81730F4F0E0C8
:10056000E05CFE4F808190E008958FEF9FEF08954B
:100570009091E0018091DF012FEF3FEF981748F451
:10058000E92FF0E0E05CFE4F208130E09F5F909328
:10059000E001C90108958091DF019091E001891B7C
:1005A000990B0895CF93DF93CB01EA01642F0E944A
:1005B0006302CE01DF91CF910895CF93DF931F9215
:1005C000CDB7DEB7698361E0CE0101960E94630278
:1005D00081E090E00F90DF91CF91089590E080E06E
:1005E0000895FC0101900020E9F73197AF01481B05
:1005F000590BBC0187EE91E00C94B200CF93DF93CE
:1006000085ED8093BC008091620190916301A0917F
:100610006401B09165010796A11DB11D23E0B69557
:10062000A795979587952A95D1F72091BC0024FD31
:1006300003C01092AA0136C040916201509163013B
:100640006091640170916501452B462B472B69F33E
:100650000097A105B10541F025E32A95F1F70000C7
:100660000197A109B109E1CF8091610191E09093D7
:1006700060018823B9F0C091B800D091BA00809190
:10068000BC008A7B8093BC0060E082E10E94BF01D5
:1006900060E083E10E94BF010E948A02D093BA0009
:1006A000C093B800DF91CF9108958F929F92AF923F
:1006B000BF92CF92DF92EF92FF92CF93DF93CDB7AD
:1006C000DEB7A1970FB6F894DEBF0FBECDBF84E8AA
:1006D00092E00E94B8029093E6018093E5016C01DC
:1006E000990FEE08FF08F7FE3FC06DE287EE91E03C
:1006F0000E94520122273327A9012C193D094E09D6
:100700005F0919A2CE0181967C019AE0892E912C75
:10071000A12CB12CCA01B901A50194010E94F606D1
:10072000605DF70162937F01211531054105510597
:1007300089F7E114F10419F0C7010E94F10284E283
:1007400091E00E94F102A1960FB6F894DEBF0FBEB1
:10075000CDBFDF91CF91FF90EF90DF90CF90BF9012
:10076000AF909F908F900895A701960119A2CE0196
:1007700081967C018AE0882E912CA12CB12CCA0193
:10078000B901A50194010E94F606605DF70162932C
:100790007F01211531054105510589F7CACF1F9207
:1007A0000F920FB60F9211242F933F934F935F93A5
:1007B0006F937F938F939F93AF93BF93EF93FF9329
:1007C00087EE91E00E943001FF91EF91BF91AF91D0
:1007D0009F918F917F916F915F914F913F912F9159
:1007E0000F900FBE0F901F9018951F920F920FB68B
:1007F0000F9211242F938F939F93EF93FF93E09188
:10080000F701F091F8018081E091FD01F091FE0186
:1008100082FD1BC09081809100028F5F8F732091B9
:100820000102821741F0E0910002F0E0E951FE4F31
:10083000958F80930002FF91EF919F918F912F915F
:100840000F900FBE0F901F9018958081F4CF1F92CC
:100850000F920FB60F9211242F933F938F939F9374
:10086000AF93BF938091D1019091D201A091D30118
:10087000B091D4013091D00123E0230F2D3758F5EA
:100880000196A11DB11D2093D0018093D1019093B9
:10089000D201A093D301B093D4018091D50190915E
:1008A000D601A091D701B091D8010196A11DB11D2B
:1008B0008093D5019093D601A093D701B093D8012E
:1008C000BF91AF919F918F913F912F910F900FBE4C
:1008D0000F901F90189526E8230F0296A11DB11DB9
:1008E000D2CF1F920F920FB60F9211242F933F93E6
:1008F0004F935F936F937F938F939F93AF93BF9328
:10090000EF93FF938091B900887F803609F44AC045
:10091000F0F5883209F4A7C018F5803109F49BC0BE
:10092000B8F4882309F4F9C0883009F494C0FF9121
:10093000EF91BF91AF919F918F917F916F915F9157
:100940004F913F912F910F900FBE0F901F901895D0
:10095000883109F488C0803251F78093A90114C00E
:10096000803409F49DC040F48033B9F38833F9F63C
:100970008093A90185ECB0C0803509F485C0883525
:1009800009F496C0883499F60E94FE02D0CF8839C7
:1009900009F48CC038F5883729F050F4883611F006
:1009A000803729F683E08093AA011092A80157C0EE
:1009B000883809F47BC0803919F0803809F0B7CF46
:1009C0008091A801803208F071C0E091A80181E017
:1009D0008E0F8093A8018091BB00F0E0E857FE4F96
:1009E00080833DC0803B39F0E0F4803A09F479C05F
:1009F000883A09F09CCF84E08093AA011092870185
:100A000010928601E091DB01F091DC010995809163
:100A1000860181110FC081E08093860110926601EA
:100A200009C0803C09F4A6CF883C09F4A3CF883BD9
:100A300009F07DCFE091870181E08E0F80938701DF
:100A4000F0E0EA59FE4F80818093BB0090918701CE
:100A50008091860129C08091CF018093BB0085ECF5
:100A60008093BC0064CF9091CE018091CD01981706
:100A700058F5E091CE0181E08E0F8093CE01F0E039
:100A8000E355FE4F8081E9CFE091CE0181E08E0FEA
:100A90008093CE018091BB00F0E0E355FE4F808350
:100AA0009091CE018091CD019817C8F285E8D8CFFA
:100AB000E091CE0181E08E0F8093CE018091BB004A
:100AC000F0E0E355FE4F80838091AC0181115CCF53
:100AD00081E08093AB0184EA8093BC001092AA016C
:100AE00026CF85EC8093BC001092AA018091A801CA
:100AF000803230F4E091A801F0E0E857FE4F108218
:100B00006091A80170E0E091D901F091DA0188E8E4
:100B100091E009951092A8010ACF1092A90134CF53
:100B2000E7EEF1E01382128288EE93E0A0E0B0E0FD
:100B300084839583A683B78324E031E031832083C7
:100B400025EC30E03587248724EC30E03787268792
:100B500020EC30E0318B208B21EC30E0338B228B8A
:100B600022EC30E0358B248B26EC30E0378B268B63
:100B7000118E128E138E148EE4E8F2E0138212822C
:100B800084839583A683B78386E191E091838083F4
:100B90000895789484B5826084BD84B5816084BDF5
:100BA00085B5826085BD85B5816085BD80916E000B
:100BB000816080936E00109281008091810082603C
:100BC0008093810080918100816080938100809179
:100BD00080008160809380008091B1008460809368
:100BE000B1008091B00081608093B00080917A0064
:100BF000846080937A0080917A00826080937A008A
:100C000080917A00816080937A0080917A00806878
:100C100080937A001092C100E1EBF0E02491EDE9BD
:100C2000F0E08491882399F090E0880F991FFC01EF
:100C3000EA57FF4FA591B491FC01E458FF4F85910D
:100C400094918FB7F894EC91E22BEC938FBF1092B4
:100C5000E0011092DF011092DE011092DD010E948E
:100C60008A0287E890E09093DC018093DB0188E8BA
:100C700090E09093DA018093D90182E18093BA00E9
:100C800085E593E09093E2018093E101E091F70123
:100C9000F091F80182E08083E091F301F091F4019A
:100CA0001082E091F501F091F6018FEC80831092B3
:100CB000FF01E091FB01F091FC0186E08083E0916F
:100CC000F901F091FA01808180618083E091F9015E
:100CD000F091FA01808188608083E091F901F091C0
:100CE000FA01808180688083E091F901F091FA0136
:100CF00080818F7D808387E291E00E94F10284E20F
:100D000091E00E94F1028EEF882E912CA12CB12C43
:100D1000C0E0D0E062E370E080E090E00E9430024A
:100D20002091E5013091E601032E000C440B550B98
:100D30002150310941095109ACE6B7E00E94EB06A8
:100D4000A50194010E94CC0669017A0184E6C80ECF
:100D5000D11CE11CF11CD092E401C092E30161E0DE
:100D60008DE00E94BF010D2C000CEE08FF08C701AA
:100D7000B6010E94300260E08DE00E94BF01C70111
:100D8000B6010E943002209729F20E941C0188239C
:100D900009F20E940000BECF052E97FB1EF40094BE
:100DA0000E94E30657FD07D00E94F60607FC03D019
:100DB0004EF40C94E30650954095309521953F4FA5
:100DC0004F4F5F4F089590958095709561957F4F37
:100DD0008F4F9F4F08950E941807A59F900DB49FB5
:100DE000900DA49F800D911D11240895A1E21A2E4B
:100DF000AA1BBB1BFD010DC0AA1FBB1FEE1FFF1FBF
:100E0000A217B307E407F50720F0A21BB30BE40B0E
:100E1000F50B661F771F881F991F1A9469F7609555
:100E20007095809590959B01AC01BD01CF0108950F
:100E3000A29FB001B39FC001A39F700D811D11241B
:100E4000911DB29F700D811D1124911D0895EE0F0B
:100E5000FF1F0590F491E02D0994F894FFCF000056
:100E600000005201B200DF009F011001EE000201FC
:100E700000000000DD02D202EE02A802CB02B8029E
:100E8000A9020D0A0049324320536C617665204463
:0E0E9000656D6F6E7374726174696F6E000031
:107E0000112484B714BE81FFF0D085E080938100F7
:107E100082E08093C00088E18093C10086E0809377
:107E2000C20080E18093C4008EE0C9D0259A86E02C
:107E300020E33CEF91E0309385002093840096BBD3
:107E4000B09BFECF1D9AA8958150A9F7CC24DD24C4
:107E500088248394B5E0AB2EA1E19A2EF3E0BF2EE7
:107E6000A2D0813461F49FD0082FAFD0023811F036
:107E7000013811F484E001C083E08DD089C08234E0
:107E800011F484E103C0853419F485E0A6D080C0E4
:107E9000853579F488D0E82EFF2485D0082F10E0AE
:107EA000102F00270E291F29000F111F8ED06801E7
:107EB0006FC0863521F484E090D080E0DECF843638
:107EC00009F040C070D06FD0082F6DD080E0C81688
:107ED00080E7D80618F4F601B7BEE895C0E0D1E017
:107EE00062D089930C17E1F7F0E0CF16F0E7DF06D8
:107EF00018F0F601B7BEE89568D007B600FCFDCFD4
:107F0000A601A0E0B1E02C9130E011968C91119780
:107F100090E0982F8827822B932B1296FA010C0160
:107F200087BEE89511244E5F5F4FF1E0A038BF0790
:107F300051F7F601A7BEE89507B600FCFDCF97BE46
:107F4000E89526C08437B1F42ED02DD0F82E2BD052
:107F50003CD0F601EF2C8F010F5F1F4F84911BD097
:107F6000EA94F801C1F70894C11CD11CFA94CF0C13
:107F7000D11C0EC0853739F428D08EE10CD085E9AC
:107F80000AD08FE07ACF813511F488E018D01DD067
:107F900080E101D065CF982F8091C00085FFFCCF94
:107FA0009093C60008958091C00087FFFCCF809118
:107FB000C00084FD01C0A8958091C6000895E0E648
:107FC000F0E098E1908380830895EDDF803219F02E
:107FD00088E0F5DFFFCF84E1DECF1F93182FE3DFCA
:107FE0001150E9F7F2DF1F91089580E0E8DFEE27F6
:047FF000FF270994CA
:027FFE00040479
:00000001FF
